:020000040800F2
:10000000780600202902000865020008670200083F
:10001000690200086B0200086D0200080000000081
:100020000000000000000000000000006F02000857
:100030007102000800000000730200087502000849
:1000400077020008770200087702000877020008AC
:10005000770200087702000877020008770200089C
:10006000770200087702000877020008770200088C
:10007000770200087702000877020008770200087C
:10008000770200087702000877020008770200086C
:10009000770200087702000877020008770200085C
:1000A000770200087702000877020008770200084C
:1000B000770200087702000877020008770200083C
:1000C000770200087702000877020008770200082C
:1000D000770200087702000877020008770200081C
:1000E000770200087702000877020008770200080C
:1000F00077020008770200087702000877020008FC
:1001000077020008770200087702000877020008EB
:1001100077020008770200087702000877020008DB
:1001200077020008770200087702000877020008CB
:1001300077020008770200087702000877020008BB
:1001400077020008770200087702000877020008AB
:10015000770200087702000877020008770200089B
:10016000770200087702000877020008770200088B
:1001700077020008770200087702000800000000FC
:10018000770200087702000800F002F800F03CF85F
:100190000AA090E8000C82448344AAF10107DA45E2
:1001A00001D100F031F8AFF2090EBAE80F0013F0F8
:1001B000010F18BFFB1A43F0010318474408000061
:1001C00064080000103A24BF78C878C1FAD85207F2
:1001D00024BF30C830C144BF04680C6070470000C1
:1001E0000023002400250026103A28BF78C1FBD840
:1001F000520728BF30C148BF0B6070471FB500F0E1
:10020000F9FB1FBD10B510BD00F053F81146FFF704
:10021000F5FF00F04BFB00F071F803B4FFF7F2FFBD
:1002200003BC00F079F8000016481749174B9942B3
:100230003CBF50F8042B41F8042BF8D314494FF07D
:1002400000028B4238BF43F8042BFAD3DFF8440096
:10025000016841F470010160BFF34F8FBFF36F8FEE
:100260000D480047FEE7FEE7FEE7FEE7FEE7FEE794
:10027000FEE7FEE7FEE7FEE708480949094A0A4BA0
:1002800070470000200A000800000020180000202D
:100290007806002088ED00E0890100087800002041
:1002A000780600207802002078020020704770470E
:1002B0007047754600F02CF8AE4605006946534677
:1002C00020F00700854618B020B5FFF7D5FFBDE840
:1002D00020404FF000064FF000074FF000084FF0AD
:1002E000000B21F00701AC46ACE8C009ACE8C0093E
:1002F000ACE8C009ACE8C0098D46704710B50446AB
:10030000AFF300802046BDE81040FFF786BF000035
:10031000004870471800002001491820ABBEFEE7D6
:1003200026000200704700002348C06C40F0120015
:100330002149C8646FF03000204908600846006811
:1003400040F0100008601D480830006820F03000C0
:100350001A49083108600846006840F0300008601B
:10036000081F006820F00400091F086013480C30C3
:10037000006820F0300011490C3108606FF4403003
:100380000F4908600846006840F48030086008465D
:10039000806820F4403088600846806840F440302F
:1003A00088600846406820F4807048600846C0684D
:1003B00020F44030C860704700100240000400483C
:1003C000001000484248C06C40F001004049C86439
:1003D0004FF0904000684FF0FF304FF090410860C0
:1003E0000846006820F4806008600846406820F0F5
:1003F000200048600846806840F4406088600846F5
:10040000C06820F44060C8600846C06840F40060DE
:10041000C8600846006820F0030008600846C0680D
:1004200020F00300C8600846C06840F00200C860C1
:100430000846006A40F4801008622548806D40F04C
:100440000100234988650846806D40F010008865EA
:100450008804006920F00300890408614FF4FA5011
:1004600088620006006A20F0010008620846806980
:1004700020F0030088610846806920F060008861F0
:100480000846806940F0600088610846806940F055
:10049000080088610846406940F00100486108464C
:1004A000006840F0800008600846006A40F00100E3
:1004B0000862C820C862052048638007406940F090
:1004C000010048610846006840F00100086070477C
:1004D000001002404FF080414863704703480068B5
:1004E00020F004000149086070470000140400482F
:1004F0000348006840F004000149086070470000AC
:10050000140400485E49096821F007015C4A116043
:100510001146096841F0020111605A49096841F425
:100520008071584A116000BF5649096801F4806122
:100530000029F9D010205349496821F0F851514A57
:1005400051601146496841EA0061516011460968ED
:1005500021F08071116000BF4A49096801F0007103
:10056000B1F1007FF8D04749C96821F00301454A3D
:10057000D1601146C96841F00201D1601146C968D5
:1005800021F4FE4141F4A051D1601146C96821F027
:10059000700141F01001D1601146C96821F0C061BD
:1005A000D1601146C96841F08071D1601146096877
:1005B00041F08071116000BF3249096801F000719B
:1005C0000029F9D02F49896821F003012D4A916053
:1005D0001146896841F00301916000BF294989688B
:1005E00001F00C010C29F9D12649896821F0F001AC
:1005F000244A91601146896821F4E06191601146B6
:10060000896821F4605191601146096821F0806188
:10061000116000BF1B49096801F08061B1F1806F72
:10062000F8D01849096921F4FE41164A11611146B2
:10063000096941F4C05111611146096941F4003161
:1006400011611146096941F480311161114609684F
:1006500041F08061116000BF0A49096801F08061C2
:100660000029F9D007498831096821F44001054A79
:10067000C2F888101146096E41F4001111667047E6
:1006800000200240001002401A48C06C40F00800F0
:100690001849C8641848006820F47050164908606A
:1006A0000846006840F42050086013482030006875
:1006B00040F0EE601049203108600F4808300068B3
:1006C00040F470500C4908310860081D006820F49F
:1006D0007050091D08600846006840F4A05008608A
:1006E0000548001D006820F060000349091D0860EE
:1006F0007047000000100240000C004800B50D4893
:10070000806D40F400300B4988650A4888300068E5
:1007100020F00C00C1F888000846D0F8880040F0AE
:100720000400C1F88800FFF7AFFF034800F006F8A7
:1007300000BD00000010024000440040016821F0AC
:1007400001010160016821F010210160016821F4BC
:1007500000410160416821F44051416042F28D0145
:10076000C160016841F00C0101601E4988421BD143
:10077000016841F020010160016821F04001016041
:10078000016821F010010160016821F08001016021
:10079000016821F480710160016821F0400101606D
:1007A000016821F0010101600F49884209D1016A05
:1007B00041F0400101620D49096841F0C0010B4A56
:1007C0001160016841F00101016000BFC16901F4DD
:1007D00000110029FAD000BFC16901F4800100298D
:1007E000FAD07047004C00400044004008380140F7
:1007F00010B52A49C96C41F09001284AD164002003
:100800001BE0274A52F82010264A12684C000323A6
:10081000A3409A43234B1A601A46D2684C00032324
:10082000A3409A431F4BDA601A46D2684C00022359
:10083000A3401A431B4BDA60401C0528E1DB1A4930
:10084000096821F00301184A11601146096841F056
:100850000101116014490831096841F00301124A8D
:1008600008321160111F096821F00101121F116087
:100870000D490C31096821F003010B4A0C3211605B
:100880001146096841F002011160074914310968F5
:1008900041F00101044A1432116010BD0010024001
:1008A0000000002000100048001C004810B5FFF7B1
:1008B00029FEFFF723FFFFF785FD4FF0804000681A
:1008C00020F002004FF080410860FFF72DFDFFF798
:1008D0008FFF00F011F8002010BD00000146054810
:1008E000006901228A40104008B1012070470020B1
:1008F000FCE7000000100048002600BF4FF09040C9
:10090000006900F001000028F8D06DE04FF0804051
:10091000006920F001004FF080410861FFF7DEFD23
:10092000002612E04FF08040006900F0010060B145
:10093000761C4FF08040006920F001004FF08041AC
:100940000861022E01DDFFF7D3FD0F20FFF7C6FF80
:100950000028E7D0FFF7C2FD0025002407E0234967
:1009600051F82400FFF7BAFFA0400544641C042C92
:10097000F5DB1F48006820F001001D490860002DCC
:1009800000DA00250F2D00DB0F25681DFFF7A2FD03
:100990004FF08040006920F001004FF08041086175
:1009A000FFF79CFD002612E04FF08040006900F048
:1009B000010060B1761C4FF08040006920F001001A
:1009C0004FF080410861022E01DDFFF791FD0F20FD
:1009D000FFF784FF0028E7D1FFF780FD0448006897
:1009E00040F001000249086090E70000000000208C
:1009F000141C00484FF04070E1EE100A70470000F0
:100A0000200A00080000002018000000C4010008AF
:100A1000380A00081800002060060000E001000805
:100A20000A0000000C0000000D0000000E00000095
:080A30000F00000000000000AF
:040000050800018965
:00000001FF
